{
  "_format": "hh-sol-artifact-1",
  "contractName": "SyncSwapLoyaltyToken",
  "sourceName": "contracts/protocol/reward/SyncSwapLoyaltyToken.sol",
  "abi": [
    {
      "inputs": [
        {
          "internalType": "address",
          "name": "_rewardToken",
          "type": "address"
        }
      ],
      "stateMutability": "nonpayable",
      "type": "constructor"
    },
    {
      "inputs": [],
      "name": "ETHTransferFailed",
      "type": "error"
    },
    {
      "inputs": [],
      "name": "TransferFailed",
      "type": "error"
    },
    {
      "anonymous": false,
      "inputs": [
        {
          "indexed": true,
          "internalType": "address",
          "name": "minter",
          "type": "address"
        }
      ],
      "name": "AddMinter",
      "type": "event"
    },
    {
      "anonymous": false,
      "inputs": [
        {
          "indexed": true,
          "internalType": "address",
          "name": "sender",
          "type": "address"
        },
        {
          "indexed": true,
          "internalType": "uint256",
          "name": "epoch",
          "type": "uint256"
        },
        {
          "indexed": false,
          "internalType": "uint256",
          "name": "amount",
          "type": "uint256"
        },
        {
          "indexed": true,
          "internalType": "address",
          "name": "to",
          "type": "address"
        }
      ],
      "name": "Claim",
      "type": "event"
    },
    {
      "anonymous": false,
      "inputs": [
        {
          "indexed": true,
          "internalType": "address",
          "name": "previousOwner",
          "type": "address"
        },
        {
          "indexed": true,
          "internalType": "address",
          "name": "newOwner",
          "type": "address"
        }
      ],
      "name": "OwnershipTransferred",
      "type": "event"
    },
    {
      "anonymous": false,
      "inputs": [
        {
          "indexed": true,
          "internalType": "address",
          "name": "minter",
          "type": "address"
        }
      ],
      "name": "RemoveMinter",
      "type": "event"
    },
    {
      "anonymous": false,
      "inputs": [
        {
          "indexed": true,
          "internalType": "address",
          "name": "claimer",
          "type": "address"
        }
      ],
      "name": "SetClaimer",
      "type": "event"
    },
    {
      "anonymous": false,
      "inputs": [
        {
          "indexed": true,
          "internalType": "uint256",
          "name": "currentEpoch",
          "type": "uint256"
        }
      ],
      "name": "SetCurrentEpoch",
      "type": "event"
    },
    {
      "anonymous": false,
      "inputs": [
        {
          "indexed": true,
          "internalType": "uint256",
          "name": "epoch",
          "type": "uint256"
        },
        {
          "indexed": false,
          "internalType": "uint256",
          "name": "time",
          "type": "uint256"
        },
        {
          "indexed": false,
          "internalType": "uint256",
          "name": "amount",
          "type": "uint256"
        },
        {
          "indexed": false,
          "internalType": "uint256",
          "name": "rewardPerToken",
          "type": "uint256"
        }
      ],
      "name": "SetEpochData",
      "type": "event"
    },
    {
      "anonymous": false,
      "inputs": [
        {
          "indexed": false,
          "internalType": "uint256",
          "name": "remaining",
          "type": "uint256"
        }
      ],
      "name": "SetRemaining",
      "type": "event"
    },
    {
      "anonymous": false,
      "inputs": [
        {
          "indexed": true,
          "internalType": "address",
          "name": "rewardToken",
          "type": "address"
        }
      ],
      "name": "SetRewardToken",
      "type": "event"
    },
    {
      "anonymous": false,
      "inputs": [
        {
          "indexed": true,
          "internalType": "uint256",
          "name": "newEpoch",
          "type": "uint256"
        },
        {
          "indexed": false,
          "internalType": "uint256",
          "name": "amount",
          "type": "uint256"
        },
        {
          "indexed": false,
          "internalType": "uint256",
          "name": "totalSupply",
          "type": "uint256"
        },
        {
          "indexed": false,
          "internalType": "uint256",
          "name": "rewardPerToken",
          "type": "uint256"
        }
      ],
      "name": "SupplyRewards",
      "type": "event"
    },
    {
      "anonymous": false,
      "inputs": [
        {
          "indexed": true,
          "internalType": "address",
          "name": "from",
          "type": "address"
        },
        {
          "indexed": true,
          "internalType": "address",
          "name": "to",
          "type": "address"
        },
        {
          "indexed": false,
          "internalType": "uint256",
          "name": "amount",
          "type": "uint256"
        }
      ],
      "name": "Transfer",
      "type": "event"
    },
    {
      "anonymous": false,
      "inputs": [
        {
          "indexed": true,
          "internalType": "address",
          "name": "from",
          "type": "address"
        },
        {
          "indexed": true,
          "internalType": "address",
          "name": "to",
          "type": "address"
        },
        {
          "indexed": true,
          "internalType": "uint256",
          "name": "epoch",
          "type": "uint256"
        },
        {
          "indexed": false,
          "internalType": "uint256",
          "name": "balance",
          "type": "uint256"
        }
      ],
      "name": "TransferEpoch",
      "type": "event"
    },
    {
      "inputs": [
        {
          "internalType": "address",
          "name": "minter",
          "type": "address"
        }
      ],
      "name": "addMinter",
      "outputs": [],
      "stateMutability": "nonpayable",
      "type": "function"
    },
    {
      "inputs": [
        {
          "internalType": "address",
          "name": "",
          "type": "address"
        }
      ],
      "name": "balanceOf",
      "outputs": [
        {
          "internalType": "uint256",
          "name": "",
          "type": "uint256"
        }
      ],
      "stateMutability": "view",
      "type": "function"
    },
    {
      "inputs": [
        {
          "internalType": "address",
          "name": "account",
          "type": "address"
        },
        {
          "internalType": "uint256",
          "name": "amount",
          "type": "uint256"
        }
      ],
      "name": "burn",
      "outputs": [],
      "stateMutability": "nonpayable",
      "type": "function"
    },
    {
      "inputs": [
        {
          "internalType": "address",
          "name": "account",
          "type": "address"
        },
        {
          "internalType": "uint256",
          "name": "epoch",
          "type": "uint256"
        },
        {
          "internalType": "uint256",
          "name": "amount",
          "type": "uint256"
        }
      ],
      "name": "burnEpoch",
      "outputs": [],
      "stateMutability": "nonpayable",
      "type": "function"
    },
    {
      "inputs": [
        {
          "internalType": "address",
          "name": "from",
          "type": "address"
        },
        {
          "internalType": "uint256",
          "name": "epoch",
          "type": "uint256"
        },
        {
          "internalType": "address",
          "name": "to",
          "type": "address"
        }
      ],
      "name": "claim",
      "outputs": [
        {
          "internalType": "uint256",
          "name": "amount",
          "type": "uint256"
        }
      ],
      "stateMutability": "nonpayable",
      "type": "function"
    },
    {
      "inputs": [
        {
          "internalType": "address",
          "name": "from",
          "type": "address"
        },
        {
          "internalType": "uint256[]",
          "name": "epochs",
          "type": "uint256[]"
        },
        {
          "internalType": "address",
          "name": "to",
          "type": "address"
        }
      ],
      "name": "claimEpochs",
      "outputs": [
        {
          "internalType": "uint256",
          "name": "totalAmount",
          "type": "uint256"
        }
      ],
      "stateMutability": "nonpayable",
      "type": "function"
    },
    {
      "inputs": [
        {
          "internalType": "uint256",
          "name": "epoch",
          "type": "uint256"
        },
        {
          "internalType": "address",
          "name": "account",
          "type": "address"
        }
      ],
      "name": "claimable",
      "outputs": [
        {
          "internalType": "uint256",
          "name": "",
          "type": "uint256"
        }
      ],
      "stateMutability": "view",
      "type": "function"
    },
    {
      "inputs": [],
      "name": "claimer",
      "outputs": [
        {
          "internalType": "address",
          "name": "",
          "type": "address"
        }
      ],
      "stateMutability": "view",
      "type": "function"
    },
    {
      "inputs": [],
      "name": "currentEpoch",
      "outputs": [
        {
          "internalType": "uint256",
          "name": "",
          "type": "uint256"
        }
      ],
      "stateMutability": "view",
      "type": "function"
    },
    {
      "inputs": [],
      "name": "decimals",
      "outputs": [
        {
          "internalType": "uint8",
          "name": "",
          "type": "uint8"
        }
      ],
      "stateMutability": "view",
      "type": "function"
    },
    {
      "inputs": [
        {
          "internalType": "uint256",
          "name": "",
          "type": "uint256"
        }
      ],
      "name": "epochData",
      "outputs": [
        {
          "internalType": "uint256",
          "name": "time",
          "type": "uint256"
        },
        {
          "internalType": "uint256",
          "name": "amount",
          "type": "uint256"
        },
        {
          "internalType": "uint256",
          "name": "rewardPerToken",
          "type": "uint256"
        }
      ],
      "stateMutability": "view",
      "type": "function"
    },
    {
      "inputs": [
        {
          "internalType": "uint256",
          "name": "",
          "type": "uint256"
        }
      ],
      "name": "epochTotalSupply",
      "outputs": [
        {
          "internalType": "uint256",
          "name": "",
          "type": "uint256"
        }
      ],
      "stateMutability": "view",
      "type": "function"
    },
    {
      "inputs": [],
      "name": "isClaimPaused",
      "outputs": [
        {
          "internalType": "bool",
          "name": "",
          "type": "bool"
        }
      ],
      "stateMutability": "view",
      "type": "function"
    },
    {
      "inputs": [
        {
          "internalType": "address",
          "name": "",
          "type": "address"
        }
      ],
      "name": "isMinter",
      "outputs": [
        {
          "internalType": "bool",
          "name": "",
          "type": "bool"
        }
      ],
      "stateMutability": "view",
      "type": "function"
    },
    {
      "inputs": [
        {
          "internalType": "address",
          "name": "to",
          "type": "address"
        },
        {
          "internalType": "uint256",
          "name": "amount",
          "type": "uint256"
        }
      ],
      "name": "mint",
      "outputs": [],
      "stateMutability": "nonpayable",
      "type": "function"
    },
    {
      "inputs": [
        {
          "internalType": "address",
          "name": "to",
          "type": "address"
        },
        {
          "internalType": "uint256",
          "name": "epoch",
          "type": "uint256"
        },
        {
          "internalType": "uint256",
          "name": "amount",
          "type": "uint256"
        }
      ],
      "name": "mintEpoch",
      "outputs": [],
      "stateMutability": "nonpayable",
      "type": "function"
    },
    {
      "inputs": [
        {
          "internalType": "uint256",
          "name": "",
          "type": "uint256"
        }
      ],
      "name": "minters",
      "outputs": [
        {
          "internalType": "address",
          "name": "",
          "type": "address"
        }
      ],
      "stateMutability": "view",
      "type": "function"
    },
    {
      "inputs": [],
      "name": "mintersLength",
      "outputs": [
        {
          "internalType": "uint256",
          "name": "",
          "type": "uint256"
        }
      ],
      "stateMutability": "view",
      "type": "function"
    },
    {
      "inputs": [],
      "name": "name",
      "outputs": [
        {
          "internalType": "string",
          "name": "",
          "type": "string"
        }
      ],
      "stateMutability": "view",
      "type": "function"
    },
    {
      "inputs": [],
      "name": "owner",
      "outputs": [
        {
          "internalType": "address",
          "name": "",
          "type": "address"
        }
      ],
      "stateMutability": "view",
      "type": "function"
    },
    {
      "inputs": [],
      "name": "remaining",
      "outputs": [
        {
          "internalType": "uint256",
          "name": "",
          "type": "uint256"
        }
      ],
      "stateMutability": "view",
      "type": "function"
    },
    {
      "inputs": [
        {
          "internalType": "address",
          "name": "minter",
          "type": "address"
        },
        {
          "internalType": "bool",
          "name": "updateArray",
          "type": "bool"
        }
      ],
      "name": "removeMinter",
      "outputs": [],
      "stateMutability": "nonpayable",
      "type": "function"
    },
    {
      "inputs": [],
      "name": "renounceOwnership",
      "outputs": [],
      "stateMutability": "nonpayable",
      "type": "function"
    },
    {
      "inputs": [],
      "name": "rewardToken",
      "outputs": [
        {
          "internalType": "address",
          "name": "",
          "type": "address"
        }
      ],
      "stateMutability": "view",
      "type": "function"
    },
    {
      "inputs": [
        {
          "internalType": "address",
          "name": "account",
          "type": "address"
        },
        {
          "internalType": "uint256",
          "name": "amount",
          "type": "uint256"
        }
      ],
      "name": "setBalance",
      "outputs": [],
      "stateMutability": "nonpayable",
      "type": "function"
    },
    {
      "inputs": [
        {
          "internalType": "bool",
          "name": "_isClaimPaused",
          "type": "bool"
        }
      ],
      "name": "setClaimPaused",
      "outputs": [],
      "stateMutability": "nonpayable",
      "type": "function"
    },
    {
      "inputs": [
        {
          "internalType": "address",
          "name": "_claimer",
          "type": "address"
        }
      ],
      "name": "setClaimer",
      "outputs": [],
      "stateMutability": "nonpayable",
      "type": "function"
    },
    {
      "inputs": [
        {
          "internalType": "uint256",
          "name": "_currentEpoch",
          "type": "uint256"
        }
      ],
      "name": "setCurrentEpoch",
      "outputs": [],
      "stateMutability": "nonpayable",
      "type": "function"
    },
    {
      "inputs": [
        {
          "internalType": "address",
          "name": "account",
          "type": "address"
        },
        {
          "internalType": "uint256",
          "name": "epoch",
          "type": "uint256"
        },
        {
          "internalType": "uint256",
          "name": "amount",
          "type": "uint256"
        }
      ],
      "name": "setEpochBalance",
      "outputs": [],
      "stateMutability": "nonpayable",
      "type": "function"
    },
    {
      "inputs": [
        {
          "internalType": "uint256",
          "name": "_epoch",
          "type": "uint256"
        },
        {
          "internalType": "uint256",
          "name": "_time",
          "type": "uint256"
        },
        {
          "internalType": "uint256",
          "name": "_amount",
          "type": "uint256"
        },
        {
          "internalType": "uint256",
          "name": "_rewardPerToken",
          "type": "uint256"
        }
      ],
      "name": "setEpochData",
      "outputs": [],
      "stateMutability": "nonpayable",
      "type": "function"
    },
    {
      "inputs": [
        {
          "internalType": "string",
          "name": "_name",
          "type": "string"
        }
      ],
      "name": "setName",
      "outputs": [],
      "stateMutability": "nonpayable",
      "type": "function"
    },
    {
      "inputs": [
        {
          "internalType": "uint256",
          "name": "amount",
          "type": "uint256"
        }
      ],
      "name": "setRemaining",
      "outputs": [],
      "stateMutability": "nonpayable",
      "type": "function"
    },
    {
      "inputs": [
        {
          "internalType": "address",
          "name": "_rewardToken",
          "type": "address"
        }
      ],
      "name": "setRewardToken",
      "outputs": [],
      "stateMutability": "nonpayable",
      "type": "function"
    },
    {
      "inputs": [
        {
          "internalType": "string",
          "name": "_symbol",
          "type": "string"
        }
      ],
      "name": "setSymbol",
      "outputs": [],
      "stateMutability": "nonpayable",
      "type": "function"
    },
    {
      "inputs": [
        {
          "internalType": "uint256",
          "name": "amount",
          "type": "uint256"
        }
      ],
      "name": "supplyRewards",
      "outputs": [],
      "stateMutability": "nonpayable",
      "type": "function"
    },
    {
      "inputs": [],
      "name": "symbol",
      "outputs": [
        {
          "internalType": "string",
          "name": "",
          "type": "string"
        }
      ],
      "stateMutability": "view",
      "type": "function"
    },
    {
      "inputs": [],
      "name": "totalSupply",
      "outputs": [
        {
          "internalType": "uint256",
          "name": "",
          "type": "uint256"
        }
      ],
      "stateMutability": "view",
      "type": "function"
    },
    {
      "inputs": [
        {
          "internalType": "address",
          "name": "newOwner",
          "type": "address"
        }
      ],
      "name": "transferOwnership",
      "outputs": [],
      "stateMutability": "nonpayable",
      "type": "function"
    },
    {
      "inputs": [
        {
          "internalType": "uint256",
          "name": "",
          "type": "uint256"
        },
        {
          "internalType": "address",
          "name": "",
          "type": "address"
        }
      ],
      "name": "userBalances",
      "outputs": [
        {
          "internalType": "uint256",
          "name": "",
          "type": "uint256"
        }
      ],
      "stateMutability": "view",
      "type": "function"
    },
    {
      "inputs": [
        {
          "internalType": "uint256",
          "name": "",
          "type": "uint256"
        },
        {
          "internalType": "address",
          "name": "",
          "type": "address"
        }
      ],
      "name": "userClaimed",
      "outputs": [
        {
          "internalType": "uint256",
          "name": "",
          "type": "uint256"
        }
      ],
      "stateMutability": "view",
      "type": "function"
    },
    {
      "inputs": [
        {
          "internalType": "address",
          "name": "",
          "type": "address"
        }
      ],
      "name": "userTotalClaimed",
      "outputs": [
        {
          "internalType": "uint256",
          "name": "",
          "type": "uint256"
        }
      ],
      "stateMutability": "view",
      "type": "function"
    },
    {
      "inputs": [
        {
          "internalType": "address",
          "name": "token",
          "type": "address"
        },
        {
          "internalType": "address",
          "name": "to",
          "type": "address"
        },
        {
          "internalType": "uint256",
          "name": "amount",
          "type": "uint256"
        }
      ],
      "name": "withdrawERC20",
      "outputs": [],
      "stateMutability": "nonpayable",
      "type": "function"
    },
    {
      "inputs": [
        {
          "internalType": "address",
          "name": "to",
          "type": "address"
        },
        {
          "internalType": "uint256",
          "name": "amount",
          "type": "uint256"
        }
      ],
      "name": "withdrawETH",
      "outputs": [],
      "stateMutability": "nonpayable",
      "type": "function"
    }
  ],
  "bytecode": "0x60a0346200022057601f6200247a38819003918201601f19168301926001600160401b0392909183851183861017620002255781602092849260409788528339810103126200022057516001600160a01b0390818116908190036200022057600190600092828455825460018060a01b031991338383161785553391167f8be0079c531659141344cd1fd0a4f28419497f9722a3daafe3b4186f6b6457e0868951a3620000ae6002546200023b565b601f8111620001d2575b507f53796e6353776170204c6f79616c747920546f6b656e0000000000000000002c600255600354620000eb906200023b565b601f811162000184575b50600a647953594e4360d81b016003556012608052826007556004541617600455835192606084019084821090821117620001705790600292918552428452602084018281528580860193808552808052600d60205220945185555190840155519101555161220190816200027982396080518161139e0152f35b634e487b7160e01b83526041600452602483fd5b60038552601f0160051c7fc2575a0e9e593c00f959f8c92f12db2869c3395a3b0502d05e2516446f71f85b9081019084905b828110620001c6575050620000f5565b868155018490620001b6565b60028552601f0160051c7f405787fa12a823e0f2b7631cc41b3ba8828b3321ca811111fa75cd3aa3bb5ace9081019084905b82811062000214575050620000b8565b86815501849062000204565b600080fd5b634e487b7160e01b600052604160045260246000fd5b90600182811c921680156200026d575b60208310146200025757565b634e487b7160e01b600052602260045260246000fd5b91607f16916200024b56fe60a06080604081528160405260048036101561001a57600080fd5b600092833560e01c90816306788fa3146118745750806306fdde03146117c957806318160ddd146117a95780631dd6b9b1146117245780632377b2a81461145c57806325fc0087146113c2578063313ce567146113835780633beb98421461133f57806340c10f19146112fa57806344004cc1146112385780634782f779146111da5780634ae09d301461113557806350bc99951461111057806355234ec0146110f05780636268347f146110b65780636402c4901461108c5780636b72c87114610f7c5780636e821b2e14610f3157806370a0823114610ef7578063715018a614610e965780637667180814610e765780638623ec7b14610e1f5780638aee812714610db55780638da5cb5b14610d8b57806395d89b4114610ca8578063983b2d5614610bb25780639dc29fac14610b715780639e96a26014610a11578063a0c7f71c146109dd578063aa271e1a1461099d578063ae17cf7714610966578063b343d730146107b4578063b84c824614610650578063c37bbabc14610630578063c47f0027146104b7578063cd370b1314610479578063cdfb583214610402578063d379be23146103d4578063db81fe9b14610390578063e1c1991514610342578063e30443bc146102f9578063f2fde38b1461022c5763f7c618c11461020157600080fd5b34610228578260031936011261022857549051516001600160a01b03909116815260209150f35b8280fd5b503461022857602036600319011261022857610246611a7a565b61024e611ca2565b6001600160a01b039081169182156102a6575060015492826bffffffffffffffffffffffff60a01b851617600155515192167f8be0079c531659141344cd1fd0a4f28419497f9722a3daafe3b4186f6b6457e08484a3f35b60849060208551519162461bcd60e51b8352820152602660248201527f4f776e61626c653a206e6577206f776e657220697320746865207a65726f206160448201526564647265737360d01b6064820152fd5b50503461033e578051806003193601126102285760ff610317611a7a565b91338552600e6020528420541661032d57505151f35b61033a9060243590611dad565b5151f35b5080fd5b50346102285760203660031901126102285760207fb76c8ad7940d7539c8a384077cb0ce5cff08d0e5d4c53d2d456fca7451b65d659135610381611ca2565b80600855835151908152a15151f35b509034610228575190816003193601126102285760209282916103b1611aab565b90358252600a85528282206001600160a01b039091168252845220549051908152f35b50503461033e578160031936011261033e5760105490515160089190911c6001600160a01b03168152602090f35b50503461033e57602036600319011261033e5761041d611a7a565b90610426611ca2565b60108054610100600160a81b031916600884901b610100600160a81b03161790555151906001600160a01b03167fdfe91dcad2adcb1ecd18d2e830b469081211d6743c1e2dfa893836431fb787948383a2f35b50503461033e5761048936611ba6565b90338552600e60205260ff8451862054166104a6575b5050505151f35b6104af92611d1c565b38808061049f565b5091903461033e576104c836611c39565b926104d1611ca2565b83519067ffffffffffffffff821161061d57506104ef600254611b15565b601f81116105ba575b50602080601f8311600114610537575083948293949261052c575b50508160011b916000199060031b1c1916176002555151f35b015190503880610513565b60028552601f198316957f405787fa12a823e0f2b7631cc41b3ba8828b3321ca811111fa75cd3aa3bb5ace929186905b8882106105a257505083600195969710610589575b505050811b016002555151f35b015160001960f88460031b161c1916905538808061057c565b80600185968294968601518155019501930190610567565b600284527f405787fa12a823e0f2b7631cc41b3ba8828b3321ca811111fa75cd3aa3bb5ace601f830160051c81019160208410610613575b601f0160051c01905b81811061060857506104f8565b8481556001016105fb565b90915081906105f2565b634e487b7160e01b845260419052602483fd5b50503461033e578160031936011261033e57602090600f54905151908152f35b5091903461033e5761066136611c39565b9261066a611ca2565b83519067ffffffffffffffff821161061d575060039061068a8254611b15565b601f8111610752575b50602080601f83116001146106d15750849582939495926106c6575b50508160011b9160001990841b1c19161790555151f35b0151905038806106af565b838652601f198316967fc2575a0e9e593c00f959f8c92f12db2869c3395a3b0502d05e2516446f71f85b929187905b89821061073a5750508360019596979810610722575b505050811b0190555151f35b015160001983861b60f8161c19169055388080610716565b80600185968294968601518155019501930190610700565b8285527fc2575a0e9e593c00f959f8c92f12db2869c3395a3b0502d05e2516446f71f85b601f830160051c810191602084106107aa575b601f0160051c01905b81811061079f5750610693565b858155600101610792565b9091508190610789565b5034610228578151366003190112610228576107ce611a7a565b916024928335928315158403610962576107e6611ca2565b6001600160a01b03918216808752600e60205283518088205491959160ff16156109325750848752600e60205283518720805460ff19169055610850575b8584845151907f2f91b591fc56ac0917953ad01ec225524ee5ef0555213e4c8a9d8c9728ee7ffb8383a2f35b600f90815490875b828110610868575b505050610824565b848761087383611bd0565b929054600393841b1c161461088b5750600101610858565b9596979060018496959610610920576108e1906108bd866108b0600019809801611bd0565b9054908b1b1c1691611bd0565b90919082549060031b9160018060a01b039283811b93849216901b16911916179055565b845491821561090f57505001926108f784611bd0565b81939154921b1b191690555581903880808080610860565b634e487b7160e01b8a526031905288fd5b50634e487b7160e01b89526011825288fd5b5162461bcd60e51b8152602081840152600c818801526b2737ba10309036b4b73a32b960a11b6044820152606490fd5b8580fd5b503461022857602036600319011261022857358015158091036102285761098b611ca2565b60ff8019601054169116176010555151f35b50503461033e57602036600319011261033e576020919060ff906001600160a01b036109c7611a7a565b168352600e845251809220541690519015158152f35b509134610a0e578151366003190112610a0e5750610a066020926109ff611aab565b9035611ea3565b905151908152f35b80fd5b508234610a0e576060366003190112610a0e57610a2c611a7a565b602435610a37611a95565b91610a40611f9d565b60105490610a5160ff831615611f2e565b6001600160a01b03818116929091610a7e91610a7890338614908115610b62575b50611f63565b84611ea3565b958615610b2a575091600193917fb6fe5ce185a3773d47e919f57c7edfd102c91cb7833b2be405c4de89d9980fd76020879584829b9952600b8252885180882085895283528720610ad08b8254611cfa565b9055838752600c825288518720610ae88b8254611cfa565b90556008548a81811115610b19575050866008555b610b078a87611ff3565b885151958a87521694a4555151908152f35b610b2291611da2565b600855610afd565b60649060208951519162461bcd60e51b835282015260116024820152704e6f20746f6b656e20746f20636c61696d60781b6044820152fd5b60081c8516331490508b610a72565b50503461033e578051806003193601126102285760ff610b8f611a7a565b91338552600e60205284205416610ba557505151f35b61033a9060243590611e5c565b50903461022857602036600319011261022857610bcd611a7a565b610bd5611ca2565b6001600160a01b038116808552600e60205282518086205491949160ff16610c755750838552600e60205282518520805460ff19166001179055600f549068010000000000000000821015610c625750906108bd826001610c399401600f55611bd0565b5151907f16baa937b08d58713325f93ac58b8a9369a4359bbefb4957d6d9b402735722ab8383a2f35b634e487b7160e01b865260419052602485fd5b906020606492519162461bcd60e51b8352820152600d60248201526c105b1c9958591e481859191959609a1b6044820152fd5b50503461033e578160031936011261033e578051519082600354610ccb81611b15565b80855291600191808316908115610d635750600114610d06575b505050610cf782610d02940383611af3565b515191829182611b4f565b0390f35b9450600385527fc2575a0e9e593c00f959f8c92f12db2869c3395a3b0502d05e2516446f71f85b5b828610610d4b57505050610cf7826020610d029582010194610ce5565b80546020878701810191909152909501948101610d2e565b610d02975086935060209250610cf794915060ff191682840152151560051b82010194610ce5565b50503461033e578160031936011261033e576001549051516001600160a01b039091168152602090f35b50903461022857602036600319011261022857610dd0611a7a565b610dd8611ca2565b82546001600160a01b0319166001600160a01b03919091169081179092555151907f6f8c206ce9f10423f2b99164314c3e6e47f872d0d56a1c072c5e5bb4a9b9cd368383a2f35b50346102285760203660031901126102285735600f5481101561022857600f6020935260018060a01b03907f8d1108e10bcb7c27dddfc02ed9d693a074039d026cf4ea4240b40f7d581ac802015416905151908152f35b50503461033e578160031936011261033e57602090600754905151908152f35b50503461033e578160031936011261033e57610eb0611ca2565b600180546001600160a01b031981169091559051519082906001600160a01b03167f8be0079c531659141344cd1fd0a4f28419497f9722a3daafe3b4186f6b6457e08284a3f35b50503461033e57602036600319011261033e57602091906001600160a01b03610f1e611a7a565b1682526006835251809120549051908152f35b503461022857602036600319011261022857358252600d6020525180912090610d02825491600260018501549401549051938493846040919493926060820195825260208201520152565b50503461033e57610f8c36611ba6565b91338552602091600e835260ff855187205416610faa575b85855151f35b610fb48483611dad565b808652600a835284518087206001600160a01b0390931680885292845286205481908388868884811115611043578461100160008051602061218c83398151915294959661101f93611da2565b878652600984526110178d518720918254611cfa565b90558a611da2565b8a5151908152a45b8552600a82528351918286209186525283205538808080610fa4565b80858c6110796110666110809560008051602061218c833981519152989a611da2565b918a8a5260098752518920918254611da2565b9055611da2565b8a5151908152a4611027565b5091903461033e57602036600319011261033e576020923582526009835251809120549051908152f35b50503461033e57602036600319011261033e57602091906001600160a01b036110dd611a7a565b168252600c835251809120549051908152f35b50503461033e578160031936011261033e57602090600854905151908152f35b50503461033e578160031936011261033e5760209060ff601054169051519015158152f35b5034610228578160031936011261022857357f124e7a5a560057b9c72d718eb77a32686f14e5beb7133d0ffe4210fb8bf76b346044356024356111d360643561117c611ca2565b86515161118881611ac1565b8381526020810190858252600289518201848152898c52600d6020528a5193848d20935184555160018401555191015551938493846040919493926060820195825260208201520152565b0390a25151f35b5034610228578151366003190112610228578280806111f7611a7a565b602435611202611ca2565b8015611231575b865151915af1611217612098565b501561122257505151f35b90515163b12d13eb60e01b8152fd5b5047611209565b503461022857606036600319011261022857611252611a7a565b61125a611aab565b60443591611266611ca2565b8215611277575b61033a93506120c8565b8451516370a0823160e01b8152309481019490945291506020836024816001600160a01b0386165afa80156112ef5785906112b8575b61033a93509161126d565b506020833d82116112e7575b816112d160209383611af3565b810103126112e35761033a92516112ad565b8480fd5b3d91506112c4565b8451513d87823e3d90fd5b50503461033e578051806003193601126102285760ff611318611a7a565b91338552600e6020528420541661132e57505151f35b61033a906024359060075490611d1c565b50903461022857519081600319360112610228576020928291611360611aab565b90358252600b85528282206001600160a01b039091168252845220549051908152f35b50503461033e578160031936011261033e57602090515160ff7f0000000000000000000000000000000000000000000000000000000000000000168152f35b50503461033e57816113d336611ba6565b92919092338352600e60205260ff8551842054166113f2575b82855151f35b60208161140e60008051602061218c8339815191529385611e5c565b858552600a825286518086206001600160a01b039095168087529483528520805461143a908390611da2565b905585855260098252865180862082815403905551908152a4388281806113ec565b5034610228576020908160031936011261172057803561147a611ca2565b60075492838652600981528451808720549384159182801590611718575b156116e4575080546001600160a01b031680156116ae578751516370a0823160e01b815230818401526024929185908290859082905afa9081156116a3578a91611672575b50600854906114ec8783611cfa565b1161163957856114fb91611cfa565b60085584159360001993670de0b6b3a7640000908615888704831116611627576116155787908702049485159081159161160d575b50156115d65760028a600d8b51519361154885611ac1565b4285528085019b8a8d528d518601938a855252528a51998a8d2093518455516001840155519101556007549283146115c557505060010160078190559351918252602082019290925260408101919091527f518886e320246c1089e7c2aa97af065800b49c15b997e114d238178a8292f6dd9080606081016111d3565b634e487b7160e01b89526011905287fd5b6064926013918a51519362461bcd60e51b8552840152820152722737903932bbb0b932103832b9103a37b5b2b760691b6044820152fd5b905038611530565b634e487b7160e01b8b5260128352838bfd5b634e487b7160e01b8c5260118452848cfd5b506014606492858a51519362461bcd60e51b855284015282015273496e73756666696369656e742062616c616e636560601b6044820152fd5b90508481813d831161169c575b6116898183611af3565b810103126116985751386114dd565b8980fd5b503d61167f565b8951513d8c823e3d90fd5b87515162461bcd60e51b8152808301859052600f60248201526e2737903932bbb0b932103a37b5b2b760891b6044820152606490fd5b5162461bcd60e51b8152908101839052600f60248201526e4e6f20746f6b656e20737570706c7960881b6044820152606490fd5b508415611498565b8380fd5b50903461022857602036600319011261022857813591611742611ca2565b82156117765750816007555151907f7ee6fa162192af4a4bee16c0873fa5a870abc03272fdd6b107128a84506e719c8383a2f35b602060649251519162461bcd60e51b8352820152600d60248201526c092dcecc2d8d2c840cae0dec6d609b1b6044820152fd5b50503461033e578160031936011261033e57602090600554905151908152f35b50503461033e578160031936011261033e5780515190826002546117ec81611b15565b80855291600191808316908115610d63575060011461181757505050610cf782610d02940383611af3565b9450600285527f405787fa12a823e0f2b7631cc41b3ba8828b3321ca811111fa75cd3aa3bb5ace5b82861061185c57505050610cf7826020610d029582010194610ce5565b8054602087870181019190915290950194810161183f565b9050828434610a0e576060366003190112610a0e57611891611a7a565b67ffffffffffffffff949060243586811161172057366023820112156117205780830135968711611a67578660051b6020976118cf89830189611af3565b87526024888801918301019136831161096257906024899201905b838210611a5857505050506118fd611a95565b91611906611f9d565b83956010549261191960ff851615611f2e565b6001600160a01b038181169461194390338714908115611a49575b50908a97969594939291611f63565b825192885b8481106119a2578c898c60018d611989848e8e8452600c885285518420611970838254611cfa565b9055600854828181111561199157505083600855611ff3565b555151908152f35b61199a91611da2565b600855611ff3565b9080929394959697985051811015611a36578b808260051b84010151886119c98783611ea3565b9d8e6119d491611cfa565b9d828d52600b84528d518d83828220915285528d20818154906119f691611cfa565b90558d5151908152868c16937fb6fe5ce185a3773d47e919f57c7edfd102c91cb7833b2be405c4de89d9980fd791a4600101939291908a97969594611948565b634e487b7160e01b895260328652602489fd5b60081c8316331490508c611934565b813581529082019082016118ea565b634e487b7160e01b845260418352602484fd5b600435906001600160a01b0382168203611a9057565b600080fd5b604435906001600160a01b0382168203611a9057565b602435906001600160a01b0382168203611a9057565b6060810190811067ffffffffffffffff821117611add57604052565b634e487b7160e01b600052604160045260246000fd5b90601f8019910116810190811067ffffffffffffffff821117611add57604052565b90600182811c92168015611b45575b6020831014611b2f57565b634e487b7160e01b600052602260045260246000fd5b91607f1691611b24565b919091602080825283519081818401526000945b828610611b90575050806040939411611b83575b601f01601f1916010190565b6000838284010152611b77565b8581018201518487016040015294810194611b63565b6060906003190112611a90576004356001600160a01b0381168103611a9057906024359060443590565b600f54811015611c0757600f6000527f8d1108e10bcb7c27dddfc02ed9d693a074039d026cf4ea4240b40f7d581ac8020190600090565b634e487b7160e01b600052603260045260246000fd5b67ffffffffffffffff8111611add57601f01601f191660200190565b6020600319820112611a905760043567ffffffffffffffff8111611a905781602382011215611a9057806004013590611c7182611c1d565b92611c7f6040519485611af3565b82845260248383010111611a905781600092602460209301838601378301015290565b6001546001600160a01b03163303611cb657565b606460405162461bcd60e51b815260206004820152602060248201527f4f776e61626c653a2063616c6c6572206973206e6f7420746865206f776e65726044820152fd5b81198111611d06570190565b634e487b7160e01b600052601160045260246000fd5b919091611d2b82600554611cfa565b60055560018060a01b03169060008051602061218c83398151915260009183835260209060068252604080852082815401905586855260098352808520828154019055600a8352808520868652835280852082815401905585856000805160206121ac833981519152858451868152a351908152a4565b818110611d06570390565b6001600160a01b031660008181526006602052604080822054909290819083908681811115611e1b57611e0982611e00611df86000805160206121ac83398151915295602095611da2565b600554611cfa565b60055589611da2565b8751908152a35b815260066020522055565b611e518183611e49611e416020956000805160206121ac83398151915297999899611da2565b600554611da2565b600555611da2565b8751908152a3611e10565b906000805160206121ac833981519152602060009360018060a01b0316928385526006825260408520611e90828254611da2565b90558060055403600555604051908152a3565b9190600092808452600a602052604084209160018060a01b031691828552602052604084205491818552600d6020526002604086200154918360001904831184151516611f1a5785670de0b6b3a76400009392604092611f17979852600b6020528282209082526020522054920204611da2565b90565b634e487b7160e01b86526011600452602486fd5b15611f3557565b60405162461bcd60e51b815260206004820152600660248201526514185d5cd95960d21b6044820152606490fd5b15611f6a57565b60405162461bcd60e51b815260206004820152600b60248201526a2737ba1031b630b4b6b2b960a91b6044820152606490fd5b600260005414611fae576002600055565b60405162461bcd60e51b815260206004820152601f60248201527f5265656e7472616e637947756172643a207265656e7472616e742063616c6c006044820152606490fd5b600480546040516370a0823160e01b815230928101929092526001600160a01b0390811693919291602084602481885afa93841561208c57600094612059575b508381111561204d575061204b9350600454166120c8565b565b92505061204b926120c8565b90936020823d8211612084575b8161207360209383611af3565b81010312610a0e5750519238612033565b3d9150612066565b6040513d6000823e3d90fd5b3d156120c3573d906120a982611c1d565b916120b76040519384611af3565b82523d6000602084013e565b606090565b60405163a9059cbb60e01b602082019081526001600160a01b039093166024820152604480820194909452928352916080810167ffffffffffffffff811182821017611add57604052600092839283809351925af1612125612098565b9015918215612149575b505061213757565b6040516312171d8360e31b8152600490fd5b9080925051918215159283612163575b505050388061212f565b81929350906020918101031261033e576020015190811591821503610a0e575038808061215956feca0efd6be7bbe35beb149a6e9edde35e31c2e54ed10d869efbaa5b26bf8eacddddf252ad1be2c89b69c2b068fc378daa952ba7f163c4a11628f55a4df523b3efa2646970667358221220c8b246837a34d9fb9fe14f738423082e1761ba346026af540f1d34802d54b58264736f6c634300080f0033",
  "linkReferences": {},
  "deployedLinkReferences": {}
}